:100000000C9434000C9449000C9449000C94490061
:100010000C9449000C9449000C9449000C9449003C
:100020000C9449000C9449000C9449000C9449002C
:100030000C9449000C9449000C9449000C9449001C
:100040000C9449000C9449000C9449000C9449000C
:100050000C9449000C9449000C9449000C944900FC
:100060000C9449000C94490011241FBECFEFD8E036
:10007000DEBFCDBF11E0A0E0B1E0E6E7F1E002C0F5
:1000800005900D92AC31B107D9F70E944B000C944A
:10009000B9000C9400000E947900209A80E091E061
:1000A0000E9491001092800080918100876080936F
:1000B000810011E010928500109284002FE788EAF9
:1000C00098E1215080409040E1F700C0000085B1E8
:1000D000812785B9C0918400D09185008D2F0E9421
:1000E000AA008C2F0E94AA0088E191E00E94910052
:1000F000E1CF1092C50083E38093C400E0ECF0E010
:1001000080818D7F808388E18093C10086E0809329
:10011000C20008959091C00095FFFCCF8093C60067
:1001200008950F931F93CF938C01C0E0F801EC0F5B
:10013000F11D8081882321F00E948A00CF5FF6CFD5
:10014000CF911F910F9108958A3010F4805D08952A
:10015000895C0895CF93C82F82958F700E94A40068
:100160000E948A008C2F8F700E94A400CF910C9463
:060170008A00F894FFCFA5
:100176000D0A3D3D2045787465726E616C20636F93
:0C018600756E746572203D3D0D0A00008E
:00000001FF
